:020000040800F2
:100000000000022089010008E9090008EB09000846
:10001000ED090008EF090008F109000800000000E0
:10002000000000000000000000000000F3090008CC
:10003000F509000800000000F7090008F9090008A8
:10004000D9010008D9010008D9010008D901000828
:10005000D9010008D9010008D9010008D901000818
:10006000D9010008D9010008D9010008D901000808
:10007000D9010008D9010008D9010008D9010008F8
:10008000D9010008D9010008D9010008D9010008E8
:10009000D9010008D9010008D9010008D9010008D8
:1000A000D9010008D9010008D9010008D9010008C8
:1000B000D9010008D9010008D9010008D9010008B8
:1000C000D9010008D9010008D9010008D9010008A8
:1000D000D9010008D9010008D9010008D901000898
:1000E000D9010008D9010008D9010008D901000888
:1000F000D9010008D9010008D9010008D901000878
:10010000D9010008D9010008D9010008D901000867
:10011000D9010008D9010008D9010008D901000857
:10012000D9010008D9010008D9010008D901000847
:10013000D9010008D9010008D9010008D901000837
:10014000D9010008D9010008D9010008D901000827
:10015000D9010008D9010008D9010008D901000817
:10016000D9010008D9010008D9010008D901000807
:10017000D9010008D9010008D901000800000000D9
:08018000D9010008D9010008B3
:10018800DFF834D0002103E00C4B5B5843500431B6
:100198000B480C4B42189A42F6D30B4A02E0002354
:1001A80042F8043B094B9A42F9D300F023FC01F0D2
:1001B80073FF00F03DFA704700000220D4270008C2
:1001C800000000203004002030040020DC0900205A
:1001D800FEE7000010B5054C237833B9044B13B182
:1001E8000448AFF300800123237010BD30040020C1
:1001F80000000000B0270008084B10B51BB10848E4
:100208000849AFF300800848036803B910BD074BDD
:10021800002BFBD0BDE81040184700BF00000000CD
:10022800B02700083404002030040020000000003B
:10023800844641EA000313F003036DD1403A41D3E9
:1002480051F8043B40F8043B51F8043B40F8043BA8
:1002580051F8043B40F8043B51F8043B40F8043B98
:1002680051F8043B40F8043B51F8043B40F8043B88
:1002780051F8043B40F8043B51F8043B40F8043B78
:1002880051F8043B40F8043B51F8043B40F8043B68
:1002980051F8043B40F8043B51F8043B40F8043B58
:1002A80051F8043B40F8043B51F8043B40F8043B48
:1002B80051F8043B40F8043B51F8043B40F8043B38
:1002C800403ABDD2303211D351F8043B40F8043BD8
:1002D80051F8043B40F8043B51F8043B40F8043B18
:1002E80051F8043B40F8043B103AEDD20C3205D3E8
:1002F80051F8043B40F8043B043AF9D2043208D0E0
:10030800D2071CBF11F8013B00F8013B01D30B8851
:1003180003806046704700BF082A13D38B078DD02F
:1003280010F003038AD0C3F10403D21ADB071CBF01
:1003380011F8013B00F8013B80D331F8023B20F86B
:10034800023B7BE7043AD9D3013A11F8013B00F8A4
:10035800013BF9D20B7803704B7843708B7883702C
:1003680060467047F0B500230C4C0A261A46B1FBCC
:10037800F4F707F13005EDB2302D04FB1711855461
:100388004FF00A07B4FBF7F400D113B1013201337F
:1003980001E000231A46013EE9D1F0BD00CA9A3BAC
:1003A80070B50378302B2AD1437803F0DF03582B3C
:1003B80025D18378002B43D0451C00240A3015F83A
:1003C800012F0AB90C602DE022F02003413B052BD8
:1003D800A2F1300302D9DEB2092E31D8DEB2092EDD
:1003E8004FEA041407D9A2F14103052B94BFA2F1E7
:1003F8003703A2F1570385421C44E0D120E00022D4
:100408001346C45C6CB16B2C01D04B2C02D15BB190
:10041800920206E06D2C02D04D2C13D004E01BB1E3
:1004280012050A60012070BDA4F13005092D07D816
:100438000A25013305FB02420B2BA2F13002E0D161
:10044800002070BD002BFBD0EAE70000054B1A68BE
:10045800136813F020031EBF536803700123184666
:10046800704700BF7008002007B500238DF80730DB
:100478000DF10700FFF7EAFF0028F9D09DF8070003
:1004880003B05DF804FB000007B502A9012201F8DA
:10049800010D4FF47A73034801F041FD03B05DF894
:1004A80004FB00BF7008002010B5441E14F8010FAB
:1004B80010B1FFF7E9FFF9E710BD00F043BE0000F7
:1004C80008B5284B98424BD800F17843B3F5804FD4
:1004D80025D3A3F58042B2F5804F22D3A3F500427D
:1004E800B2F5804F1FD3A3F54043B3F5804F1CD31B
:1004F80000F1774000F57F03B3F5803F17D31A4B1F
:1005080000F57E029A4214D900F57C029A4212D96B
:1005180000F57A00984294BF07230B230CE00023D0
:100528000AE0012308E0022306E0032304E0042391
:1005380002E0052300E006230C4A0D490D4813602C
:10054800C3F108020A600021016083600A49C260A1
:100558000223036100F08AFF003018BF012008BDA4
:10056800012008BD00000608FFFF01006804002004
:1005780050040020540400204C0400202DE9F041D0
:10058800054617460C460026BE421CD229680F4B6A
:10059800994218D8022022680023A04600F01EFEC7
:1005A80058B92B68D8F800201968914204F104045E
:1005B80006D104332B600136E6E70120BDE8F0815F
:1005C8000220BDE8F0810020BDE8F081FCFF0508AD
:1005D80000B589B0012301A8039300F0CDFE02986D
:1005E80040F6FF73C31A5842584109B05DF804FB3E
:1005F80000B58BB001230222019302920193019A64
:10060800D2089340C3F58053029300F0ADFD029BDE
:10061800059303A80023049300F054FE00F034FE71
:10062800002814BF022001200BB05DF804FB000075
:1006380030B595B000F086FC5A4B002100911A6C39
:1006480042F080521A641B6C03F080530093009BA5
:10065800554B01911A6842F480421A601B6803F4F2
:1006680080430193019B012308934FF4803309933E
:100678004FF480030F93082310934FF4A8730224B8
:10068800119308A807230E941294139301F020F8ED
:1006980000B1FEE70F2303934FF4A0530590069390
:1006A80003A84FF4805305210494079301F0DAF965
:1006B80000B1FEE700F078FC41F20103984208BF60
:1006C8003A4A384C08BF1368394808BF43F4807366
:1006D8004FF0000508BF13600295236B43F0040335
:1006E8002363236B0A9503F004030293029B4FF4E0
:1006F80040630893022308A909930B9307230C93DB
:1007080000F002FF0395236C2A4A43F480232364F4
:10071800236C294C03F480230393039BA5604FF4B7
:10072800E13384E80C0020460C236361E560256111
:10073800A561E56101F0C5FB2048FFF7B5FEFFF7AD
:10074800BCFEFF238DF8203008A94FF47A730122EC
:10075800204601F042FC142000F018FC9DF92030DE
:10076800632B02D100F0A6F81AE01548FFF79CFEAB
:10077800144A136803F07F43B3F1005F05D0136890
:1007880003F07F43B3F1805F0AD10F4B0F4A1B6818
:1007980013600F4A13600B4A126882F3088898475F
:1007A800FEE700BF0038024000700040003C0240F5
:1007B800000802400048004070080020EB210008B3
:1007C8000B2200080040000804400008B008002080
:1007D800B40800201FB51A4A10685168128901AB85
:1007E80003C318481A80FFF75FFE174800F038F96E
:1007F800041E14DD1548FFF757FE1548FFF754FE91
:10080800214601A8FFF7AEFD1248FFF74DFE01A8EB
:10081800FFF74AFE1048FFF747FE10480BE0621C3E
:1008280001D10F4807E0A31C01D10E4803E00334AF
:100838000CBF0D480D48FFF737FE04B010BD00BFD0
:10084800E02100082D22000870040020682200081A
:10085800B8080020BB220008C5220008CE220008E4
:10086800E3220008202300083A2300085023000848
:1008780008B50A48FFF718FEFFF7F6FD43280CD124
:1008880007480849084A00F067FA08B1074800E035
:100898000748BDE80840FFF707BE08BD70230008F9
:1008A800004000088923000801C00500A0230008B3
:1008B800CB23000810B53548354CFFF7F5FD354812
:1008C800FFF7F2FD3448FFF7EFFD3448FFF7ECFD82
:1008D8003148FFF7E9FD3248FFF7E6FD2B48FFF7FF
:1008E800E3FD3048FFF7E0FDFFF772FE08B901238A
:1008F80000E0002323602C48FFF7D6FD2B48FFF7C4
:10090800D3FD2B48FFF7D0FD2A48FFF7CDFD23681C
:1009180013B12948FFF7C8FD2848FFF7C5FDFFF7C1
:10092800A3FD312802D1FFF755FFE4E7322802D1B1
:10093800FFF79EFFDFE733280BD1214B214A1B68C5
:100948001360214A1360214A126882F30888984785
:10095800D1E7342811D12368012B0ED1FFF748FEC7
:10096800012803D00228C6D119480BE01948FFF71F
:100978009BFD074B00221A60BDE723680BB9164898
:1009880000E01648FFF790FDB5E700BFEB2300082D
:100998006C040020342400087D240008C6240008C4
:1009A8000F250008582500085D2500089C2500082B
:1009B800DA2500081826000856260008942600089C
:1009C80004400008B0080020B408002000400008D7
:1009D800F1260008D22600081D270008592700081C
:1009E8007047FEE7FEE7FEE7FEE77047704770478F
:1009F80000F0BEBA0F49D1F8883043F47003C1F84B
:100A080088300D4B1A68002042F001021A60986085
:100A18001A6822F0847222F480321A60074A5A60F7
:100A28001A6822F480221A60D8604FF000638B6045
:100A3800704700BF00ED00E000380240103000248D
:100A480038B505460C4644B12846FFF7FFFC012897
:100A580004F1FF34F7D1002038BD4FF0FF3038BD26
:100A68002DE9F043ADF22C4D00236E4A0293064661
:100A78000392984600273D460DF107004FF4801178
:100A8800FFF7DEFF002840F0B6809DF80730042B02
:100A98004AD007D8012B28D0022B40F0AC804FF465
:100AA800806924E0412B04D0612B02D0182B09D097
:100AB800A1E01820FFF7E8FC1820FFF7E5FC6FF02D
:100AC8000204AAE00DF107004FF48011FFF7B8FF08
:100AD8000446002840F08F809DF80730182B40F01E
:100AE8008A800620FFF7D0FC97E04FF080098DF848
:100AF8002030012409F10403A3420ADB08AB1819CA
:100B08004FF48011FFF79CFF002874D10134A4B280
:100B1800F0E79DF822309DF82120DB43DBB29A42B2
:100B280069D1B9F1000F03D10620FFF7ADFCA1E7A9
:100B3800EBB29A4203D01520FFF7A6FC59E0002D2E
:100B48003AD19DF8233093B329460DF12302137847
:100B5800354833B1B1F5807F03D0435401320131B8
:100B6800F5E70023435412F8011F202904A804D0F4
:100B7800102B02D0C1540133F5E7002202A9C25458
:100B8800FFF70EFC029A294B9A4208D91820FFF762
:100B98007BFC1820FFF778FC4FF0FF343DE021483C
:100BA800FFF78EFC0620FFF76FFC432012E00620BB
:100BB800FFF76AFC029C30E00DF123014A463046FB
:100BC800FFF736FB03A831464FEA9902FFF7D6FC38
:100BD80030B90620FFF758FC01354FF0010808E04E
:100BE8001820FFF751FC1820FFF74EFC6FF00104A6
:100BF80013E0002740E7B8F1000F00D00137052FB8
:100C080007DD1820FFF740FC1820FFF73DFC002403
:100C180003E04320FFF738FC2EE720460DF22C4D69
:100C2800BDE8F08300400008B808002002C00500B5
:100C3800F0B504460123254603700020FF236070A9
:100C480005F8023F85B00F5C86B203464FB1B3F595
:100C5800807F00F1010002D005F8017FF3E74FF42F
:100C6800807623440025DD70116801A80436FFF75B
:100C780079FBB6B22A4691B204A8731801449BB214
:100C880011F80C1C013209B1E154F4E7822B04D8A5
:100C98000022E25401339BB2F8E705B0F0BDB3F58A
:100CA800806FF0B52CBF4FF480658025AB4228BF1C
:100CB8002B46B5F5806F0CBF022601264A70D24339
:100CC8000E709CB28A700646C0F10302324492B29A
:100CD8009F1C974203DB16F8017B8F54F4E7AC4264
:100CE80008D8E31C9BB2AA1C9A4203DB1A22CA54F6
:100CF8000133F7E7F0BD41F4807149004000CB05AE
:100D080048BF0130C20344BF80F4815080F0010025
:100D1800CB03F2D580B2704738B504464518002099
:100D2800AC4280B204D214F8011BFFF7E4FFF7E7E6
:100D38000021FFF7E0FF0021BDE83840FFF7DBBFE7
:100D4800013938B5451E4418A54204D015F8010FDD
:100D5800FFF79AFBF8E738BD2DE9F047ADF5A36D2D
:100D680007460192002304AAC85C98540133FF2B5C
:100D7800F9D1114644A801AAFFF75AFF002444A854
:100D88008321FFF7DDFF80210DF21310FFF7C4FF69
:100D98000546C0F30720FFF777FBE8B2FFF774FBBF
:100DA80003A842F21071FFF74BFE20B99DF80C30F2
:100DB800062B01D104E00134092CE0D9E0B2A4E00B
:100DC800092CFBD8019D0126002D3FD0384644A9A7
:100DD800F2B22B46FFF763FFB5F5806F4FF00000C6
:100DE8002CBF4FF480684FF080088DF80C0008F194
:100DF800030A044644A85146FFF7A2FF41460DF2F4
:100E08001310FFF789FF8146C0F30720FFF73CFB6B
:100E18005FFA89F0FFF738FB03A83E49FFF710FE99
:100E280080B99DF80C30062B0CD14545474407D9AD
:100E3800B6F5B87FC8EB05051DD00136B6B2C3E7D5
:100E4800054603E001340A2CD4D112E08DF80C5089
:100E580000240420FFF718FB03A842F21071FFF7E3
:100E6800EFFD18B99DF80C30062B06D001340A2C7A
:100E7800EFD1204649E0FF2047E001238DF81031EB
:100E8800FF238DF80C008DF811018DF8123144AB59
:100E98000344013000248028DC70F8D144A8832161
:100EA800FFF74EFF80210DF21310FFF735FF0546BF
:100EB800C0F30720FFF7E8FAE8B2FFF7E5FA03A85E
:100EC80042F21071FFF7BCFD20B99DF80C30062BDB
:100ED80018D101E0013415E0092C3FF66FAF04206A
:100EE800FFF7D2FA03A842F21071FFF7A9FD18B96B
:100EF8009DF80C30062B00D001340A2C14BF0020BA
:100F08000A2002E0092CC9D958E70DF5A36DBDE800
:100F1800F08700BFA08601007047000010B5084B9D
:100F2800044618684FF47A73B0FBF3F000F084F8C5
:100F38004FF0FF302146002200F04EF8002010BD8F
:100F48000000002008B5094B1A6842F400721A60C4
:100F58001A6842F480621A60032000F02BF80F2010
:100F6800FFF7DCFFFFF7D8FF002008BD003C024078
:100F7800024A136801331360704700BFB8090020A4
:100F8800014B1868704700BFB809002013B50190DD
:100F9800FFF7F6FF0446FFF7F3FF019B001B98429B
:100FA800F9D302B010BD0000014B1868000C70475F
:100FB800002004E0074AD36823F4E0631B041B0CF9
:100FC80043F0BF6343F4003300F0070043EA002313
:100FD800D360704700ED00E0154BDB68C3F30223D4
:100FE80070B5C3F107051C1D042D28BF0425062C68
:100FF8008CBF033B0023012404FA03F6AC40013CF8
:10100800013E214099403240002842EA01024FEA5D
:101018000212AFBF00F1604000F00F00054BD2B2E2
:10102800A5BF00F56140D2B21A5480F8002370BD04
:1010380000ED00E014ED00E00138B0F1807F3FBF23
:10104800064B074A5860F0213FBF82F82310002062
:101058000722986034BF1A600120704710E000E052
:1010680000ED00E0074B1A6922F440721A611A6910
:1010780042F400721A611A6942F001021A610160B1
:10108800704700BF003C0240074B1A6922F44072C7
:101098001A611A6942F480721A611A6942F00102EF
:1010A8001A610180704700BF003C0240234BDA6898
:1010B800D20641BF2249CA6942F01002CA6144BF40
:1010C8001022DA60DB689B0607D51D4AD36943F016
:1010D8000803D361194B2022DA60184BDA685006EE
:1010E80041BF1749CA6942F00402CA6144BF40229D
:1010F800DA60DB68190607D5114AD36943F00203A1
:10110800D3610E4B8022DA600C4BDA68D20541BFFE
:101118000B49CA6942F00102CA6144BF4FF48072A8
:10112800DA60DB689B0707D5054AD36943F02003DB
:10113800D361024B0222DA60704700BF003C0240D4
:10114800BC090020064B1A69002ABFBF054A5A602D
:1011580002F188320020B4BF5A600120704700BFF6
:10116800003C024023016745064B5A69D20741BF3C
:10117800054A9A6002F1443200204CBF9A6001206F
:10118800704700BF003C02403B2A190838B5114B94
:1011980000220446DA61FFF7F3FE05460E4BDA68D3
:1011A800D1030AD5601CF9D00CB9032038BDFFF76C
:1011B800E7FE401BA042F1D9F7E7DA68D20744BF3F
:1011C8000122DA60D86810F4F97002D0FFF76EFFD8
:1011D800012038BDBC090020003C02402DE9F04147
:1011E800274E1D46337E012B80460F46144643D0BA
:1011F80001234CF250303376FFF7C8FF002837D16F
:10120800204BB8F1000F0CD1186920F44070186118
:101218001A691A611869E4B240F0010018613C705B
:101228001DE0B8F1010F04D13846A1B2FFF72CFF39
:1012380015E0B8F1020F04D138462146FFF712FF36
:101248000DE01A6922F440721A611A6942F4407278
:101258001A611A6942F001021A61C7E900454CF2A5
:101268005030FFF793FF074A136923F00103136116
:1012780000233376BDE8F0810220BDE8F08100BF8D
:10128800BC090020003C0240044A137843F00203E2
:1012980013704CF25030FFF779BF00BF143C024086
:1012A800074B1A6922F440721A611A6942F0040263
:1012B8001A611A6942F4803242EA002018617047C4
:1012C800003C024070B5284D2B7E012B044648D0C7
:1012D80023680120DE07287616D56368A66883424E
:1012E8004CF2503008D1FFF751FF68B91F4A1388F4
:1012F8009BB223EA060306E0FFF748FF20B91B4A22
:10130800138833439BB213802368990708D54CF29E
:1013180050302669FFF73AFF10B9154BF6B21E7028
:1013280023685A070DD54CF25030267EFFF72EFF62
:1013380038B910490A7806F0E00302F01F02134397
:101348000B7023681B0709D50A4B207D197801F01B
:10135800F30119701A7802431A70002000232B76C3
:1013680070BD022070BD00BFBC090020163C0240C1
:10137800153C0240143C02400F2303600C4B0D4AFD
:101388001B889BB283601378DBB2CC2B04D0137814
:10139800552B0CBF5523AA230361074B5B6923F028
:1013A8001F030376054B1B7803F00C03436170475A
:1013B800163C0240153C0240003C0240143C0240EE
:1013C80051B1012906D002290CBF4FF400714FF426
:1013D800407101E04FF480710D4B1A6922F440729C
:1013E8001A611A69114319611A6922F0F8021A611F
:1013F800F82292FAA2F21969B2FA82F241F00201D5
:101408009040084318611A6942F480321A617047A3
:10141800003C0240144B1A6891050FD51A6822F453
:1014280000721A601A6842F400621A601A6822F49C
:1014380000621A601A6842F400721A600A4B1A684D
:1014480052050FD51A6822F480621A601A6842F4AD
:1014580080521A601A6822F480521A601A6842F49C
:1014680080621A60704700BF003C02402DE9F041DD
:10147800234E337E012B054688463DD001234CF28E
:1014880050303376FFF782FE044680BB4FF0FF33BF
:10149800C8F800302B68012B0DD1287CFFF700FF1E
:1014A8004CF25030FFF772FE164A136923F004031A
:1014B8000446136119E0AF68AA68EB6813449F42B9
:1014C80013D23846297CFFF77BFF4CF25030FFF7E8
:1014D8005DFE0C4A136923F0FA03136118B1C8F8CA
:1014E8000070044601E00137E6E7FFF793FF0023A9
:1014F80033762046BDE8F0810220BDE8F08100BFC8
:10150800BC090020003C02402DE9F3410F6800228D
:101518000123934003EA07059D4240F0CB804C68C5
:1015280024F0100CBCF1020F14D14FEAD20E00EBDC
:101538008E0E02F00706DEF82030B6004FF00F08D6
:1015480008FA06F823EA08080B69B34048EA0303D7
:10155800CEF820304FEA420E0323066803FA0EF352
:10156800DB4303EA060804F0030606FA0EF60CF15C
:10157800FF3C48EA0606BCF1010F066011D88668F0
:1015880003EA060CCE6806FA0EF64CEA06068660F2
:10159800466826EA050CC4F3001696404CEA06068F
:1015A8004660C66803EA060C8B6803FA0EF64CEA36
:1015B8000603C360E3007DD5424E00230193D6F8AD
:1015C80044E04EF4804EC6F844E0766C06F480465B
:1015D8000196019E22F0030606F1804606F59C3628
:1015E80002F0030CD6F808804FEA8C0C4FF00F0E6F
:1015F8000EFA0CFE28EA0E0EDFF8D08040452BD0FC
:1016080003F1804303F5013398421AD003F5806350
:10161800984218D003F58063984216D003F580638A
:10162800984214D003F58063984212D003F5806382
:10163800984210D003F5806398420CBF0723082313
:101648000AE0012308E0022306E0032304E0042360
:1016580002E0052300E0062303FA0CF343EA0E0335
:10166800DFF864E0B360DEF80030EE4314F4803F46
:1016780014BF2B433340CEF80030DEF80430DFF8D7
:1016880048E014F4003F14BF2B433340CEF8043035
:10169800DEF8083014F4801F14BF2B433340CEF813
:1016A8000830DEF80C30A40254BF06EA03051D43D7
:1016B800054BDD600132102A7FF42AAF02B0BDE885
:1016C800F08100BF00380240003C014000000240A9
:1016D8000368F7B5D907044603D423689A074CD49E
:1016E80099E08D4B9A6802F00C02042A07D09A6898
:1016F80002F00C02082A0BD15B685B0208D5864B06
:101708001B689F03E9D56368002BE6D1012063E1DC
:101718006268814BB2F5803F06D0B2F5A02F08D1A0
:101728001A6842F480221A601A6842F480321A60F9
:1017380008E0196821F480311960196821F48021C2
:1017480019606AB1FFF71CFC0546734B1B689E03C2
:10175800C3D4FFF715FC401B6428F6D903203BE1EE
:10176800FFF70EFC05466C4B1B689803B5D5FFF7D1
:1017780007FC401B6428F6D9F0E7674B9A6812F01B
:101788000C0F07D09A6802F00C02082A16D15B6881
:10179800590213D4604B1A68920702D5E268012AED
:1017A800B4D11968F82090FAA0F02269B0FA80F054
:1017B80021F0F80182400A431A602CE0E268574B96
:1017C800DAB101221A60FFF7DBFB054652480368CD
:1017D8009F0705D4FFF7D4FB401B0228F6D9BDE7C5
:1017E8000268F82191FAA1F12369B1FA81F122F096
:1017F800F8028B40134303600DE01A60FFF7C0FB4B
:101808000546454B1B689E0705D5FFF7B9FB401BEE
:101818000228F6D9A2E72368180703D423685907D2
:1018280047D51FE062693E4B72B101221A60FFF78B
:10183800A7FB0546384B5B6F9A07EFD4FFF7A0FB71
:10184800401B0228F6D989E71A60FFF799FB05467D
:10185800314B5B6F9B07E1D5FFF792FB401B0228DA
:10186800F6D97BE7002301932B4B1A6C42F0805288
:101878001A641B6C2B4A03F080530193019B136875
:1018880043F480731360FFF77BFB0546254B1B6809
:10189800DF0512D5A268204B012A14D11A6F42F035
:1018A80001021A67FFF76CFB05461B4B1B6F9E076F
:1018B8001AD5A269002A37D173E0FFF761FB401BF4
:1018C8000228E3D94AE7052A04D11A6F42F0040234
:1018D8001A67E3E7196F21F001011967196F21F001
:1018E8000401196742B1DDE7FFF74AFB41F288338B
:1018F800401B9842D9D931E7FFF742FB0546064B12
:101908001B6F9807D5D5FFF73BFB41F28833401B87
:101918009842F4D922E700BF00380240000047424D
:10192800800E4742007000402C4B9B6803F00C036C
:10193800082B3FF4EBAE2A4D0023022A2B603ED140
:10194800FFF71EFB06462548036899012BD447F686
:10195800C07797FAA7F74FF44036B7FA87F796FAA1
:10196800A6F64FF07061B6FA86F691FAA1F1E3692E
:10197800226AB1FA81F11A43636ABB401A43A36A27
:101988005B08013BB3401343E26A8A401343436058
:1019980001232B60FFF7F4FA0446104B1B689A01E9
:1019A80007D5002018E0FFF7EBFA801B0228CAD9F8
:1019B800D4E6FFF7E5FA001B0228EED9CEE6FFF7DA
:1019C800DFFA0446054B1B689B01EAD5FFF7D8FAF6
:1019D800001B0228F6D9C1E603B0F0BD003802406A
:1019E8006000474210B51C4CA36803F00C03042B9D
:1019F8002ED0082B2ED1626802F03F03626847F6AA
:101A0800C07112F4800F626891FAA1F147F6C070B4
:101A180000EA020008BF114AB1FA81F120FA01F088
:101A28000EBFB2FBF3F20E49B1FBF3F202FB00F377
:101A3800094A50684FF4403292FAA2F200F440305A
:101A4800B2FA82F2D04001304000B3FBF0F010BD92
:101A5800034810BD014810BD003802400024F400BE
:101A680000127A00584B1A6802F00F02914270B5C2
:101A780004460D460AD82168880710D5534883685C
:101A880023F0F002A3681343836008E0CAB21A7017
:101A98001B6803F00F038B42EDD0012070BDC9070E
:101AA80006D4494B1A6802F00F0295425AD360E0F7
:101AB8006368464A012B03D1126812F4003F08E01C
:101AC800991E0129126802D812F0007F01E012F075
:101AD800020FE2D03D498A6822F0030213438B606B
:101AE800FFF74EFA6368012B06460ED1374B9B6809
:101AF80003F00C03042BD4D0FFF742FA41F28833E9
:101B0800801B9842F2D9032070BD022B0DD12F4BB8
:101B18009B6803F00C03082BC3D0FFF731FA41F29E
:101B28008833801B9842F2D9EDE7032B14D1274B59
:101B38009B6803F00C030C2BB3D0FFF721FA41F29A
:101B48008833801B9842F2D9DDE7FFF719FA41F292
:101B58008833801B9842D6D81C4B9B6813F00C0F17
:101B6800F3D19EE7EAB21A701B6803F00F03AB4289
:101B780093D121684A0706D51448836823F4E052B4
:101B8800E368134383600B0741BF104A21699368D8
:101B980023F4604344BF43EAC1039360FFF722FF85
:101BA8000A4BF0229B6892FAA2F203F0F003B2FA11
:101BB80082F2D340064AD35CD840064B18600F2007
:101BC800FFF7ACF9002070BD003C0240003802402D
:101BD8009827000800000020084B4FF4E0529B684B
:101BE80092FAA2F203F4E053B2FA82F2D340044A22
:101BF800D35C044A1068D840704700BF00380240E0
:101C08009827000800000020084B4FF460429B68AA
:101C180092FAA2F203F46043B2FA82F2D340044A81
:101C2800D35C044A1068D840704700BF00380240AF
:101C380098270008000000202DE9F047066833695E
:101C4800044623F44052C3682169C0691343A2685B
:101C58003361F3681143626923F416430A4302436C
:101C680023F00C031343F360736923F44072A369F0
:101C7800B0F5004F43EA020373617B4B7CD19E426F
:101C880003D003F580639E4231D1FFF7BDFF63683F
:101C980019254FEA43086843B0FBF8F8FFF7B4FF8B
:101CA800676868437F00B0FBF7F7FFF7ADFF63682D
:101CB8004FF064095B006843B0FBF3F0B0FBF9F048
:101CC80009FB1077FFF7A0FFB8FBF9F86268FF007F
:101CD8003237B7FBF9F707F0F807684352004FEAC5
:101CE80008187F00B0FBF2FAFFF78EFF30E0FFF72D
:101CF80073FF636819254FEA43086843B0FBF8F897
:101D0800FFF76AFF676868437F00B0FBF7F7FFF7E4
:101D180063FF63684FF064095B006843B0FBF3F04E
:101D2800B0FBF9F009FB1077FFF756FFB8FBF9F89D
:101D3800FF0062683237B7FBF9F707F0F807684326
:101D480052004FEA08187F00B0FBF2FAFFF744FF91
:101D5800454360684000B5FBF0F0B0FBF9F009FBC3
:101D680010A2D2003232B2FBF9F303F00703434466
:101D78001F44B760BDE8F0879E4202D03B4B9E42AD
:101D88002ED1FFF741FF676819256843BF00B0FBF4
:101D9800F7F7FFF739FF636868439B00B0FBF3F878
:101DA800FFF732FF63684FF0640968439B00B0FB9C
:101DB800F3F0B0FBF9F009FB10831B013233B3FBDE
:101DC800F9F303F0F008FFF71FFFB7FBF9F76268B4
:101DD800684392003F01B0FBF2FAFFF715FF2DE0D0
:101DE800FFF7FAFE676819256843BF00B0FBF7F7ED
:101DF800FFF7F2FE636868439B00B0FBF3F8FFF758
:101E0800EBFE63684FF064099B006843B0FBF3F096
:101E1800B0FBF9F009FB10831B013233B3FBF9F374
:101E280003F0F008FFF7D8FEB7FBF9F762686843DC
:101E380092003F01B0FBF2FAFFF7CEFE454360681F
:101E48008000B5FBF0F0B0FBF9F009FB10A212011D
:101E58003232B2FBF9F202F00F0208EB02033B4404
:101E6800B360BDE8F08700BF0010014000140140D6
:101E7800F8B504460E4617461D46236818683040D4
:101E8800B0421BD06A1CF9D095B92368DA6822F4ED
:101E9800D072DA605A6922F001025A61202384F86C
:101EA800393084F83A30002384F838300320F8BDFC
:101EB800FFF766F8C01BA842DFD9E6E70020F8BDA7
:101EC800704710B5044640B390F8393003F0FF026C
:101ED8001BB980F83820FFF7F3FF2268242384F821
:101EE8003930D36823F40053D3602046FFF7A4FEAB
:101EF80023681A6922F490421A615A6922F02A0268
:101F08005A61DA6842F40052DA6000202023E06364
:101F180084F8393084F83A3010BD012010BD2DE91D
:101F2800F0411E4690F83930202B04460D46904665
:101F380050D100294BD0002A49D090F83830012BD5
:101F480048D0012380F838300023C363212380F868
:101F58003930FFF715F8A4F824800746A4F826803E
:101F6800E38C9BB223B3E38C013B9BB2E384A3686D
:101F7800B3F5805F20464FF080013A4633460ED1D4
:101F8800FFF776FF10B10320BDE8F0812B882268A7
:101F9800C3F308035360236943B90235E0E7FFF749
:101FA80067FF0028EFD123682A785A600135D7E700
:101FB800204640213A463346FFF75AFF0028E2D12F
:101FC800202384F8393084F83800BDE8F0810120F6
:101FD800BDE8F0810220BDE8F0812DE9F0411F46FF
:101FE80090F83A30202B04460D46904651D10029EE
:101FF8004CD0002A4AD090F83830012B49D0012320
:1020080080F838300023C363222380F83A30FEF783
:10201800B7FFA4F82C800646A4F82E80E08D80B285
:1020280068B3E38D013B9BB2E385A368B3F5805F9A
:1020380020464FF0200132463B4612D1FFF718FFE9
:1020480010B10320BDE8F081236822695B6822B9DA
:10205800C3F3080325F8023BE0E7DBB225F8013BB0
:10206800DCE7FFF705FF0028EBD1236821695B68EF
:102078006A1C09B103F07F032B701546CEE72023B5
:1020880084F83A3084F83800BDE8F0810120BDE8D2
:10209800F0810220BDE8F08170B50F4E0F4D761B20
:1020A800B61018BF002405D0013455F8043B9847F2
:1020B800A642F9D10A4E0B4D761B00F075FBB610FF
:1020C80018BF002406D0013455F8043B9847A642AF
:1020D800F9D170BD70BD00BFC8270008C827000827
:1020E800D0270008C8270008024B13B1024800F0A7
:1020F80005B87047000000001121000801460020C3
:102108000246034600F016B838B5084B084DED1ADC
:10211800AC1018BFED1805D0013C55F8043D9847A0
:10212800002CF9D1BDE8384000F044BBD0270008A6
:10213800D42700082DE9F047254C2568D5F84841F3
:102148000646884692469946CCB360681F2818DC34
:10215800431C7EB104EB80050121C5F888A0D4F8A2
:10216800887101FA00F21743022EC4F88871C5F885
:1021780008911ED00230636044F820800020BDE83A
:10218800F087144B03B34FF4C870AFF300800446D4
:10219800D0B1D5F84831002780E88800C5F8484113
:1021A80038460123C4F88871C4F88C71002EE1D038
:1021B800D0E7D4F88C110A43C4F88C21DAE705F586
:1021C800A674C5F84841C0E74FF0FF30BDE8F08776
:1021D800AC2700080000000020202020202020201C
:1021E80020200053746172742070726F6772616D81
:1021F80020657865637574696F6E2E2E2E2E2E2ECF
:102208000D0A005374617274696E67207573657284
:10221800206170706C69636174696F6E2E2E2E2E4A
:102228002E2E0D0A0057616974696E6720666F72F9
:10223800207468652066696C6520746F206265206B
:1022480073656E74202E2E2E20287072657373208D
:1022580027612720746F2061626F7274290A0D004C
:102268000A0A0D2050726F6772616D6D696E672082
:10227800436F6D706C657465642053756363657333
:102288007366756C6C79210A0D2D2D2D2D2D2D2D34
:102298002D2D2D2D2D2D2D2D2D2D2D2D2D2D2D2D66
:1022A8002D2D2D2D2D2D2D2D2D0D0A204E616D65D9
:1022B8003A20000A0D2053697A653A2000204279B5
:1022C8007465730D0A002D2D2D2D2D2D2D2D2D2DE1
:1022D8002D2D2D2D2D2D2D2D2D0A000A0A0D54687A
:1022E8006520696D6167652073697A652069732067
:1022F800686967686572207468616E207468652013
:10230800616C6C6F776564207370616365206D65BF
:102318006D6F7279210A0D000A0A0D566572696699
:1023280069636174696F6E206661696C6564210A0E
:102338000D000D0A0A41626F72746564206279208B
:10234800757365722E0A0D000A0D4661696C656425
:1023580020746F20726563656976652074686520EE
:1023680066696C65210A0D000A0A0D53656C656380
:102378007420526563656976652046696C650A0D47
:102388000055706C6F61646564466C617368496D73
:102398006167652E62696E000A0D4572726F722060
:1023A8004F63637572726564207768696C65205441
:1023B80072616E736D697474696E672046696C65C5
:1023C8000A0D000A0D46696C652075706C6F6164B2
:1023D8006564207375636365737366756C6C7920C7
:1023E8000A0D000D0A3D3D3D3D3D3D3D3D3D3D3D18
:1023F8003D3D3D3D3D3D3D3D3D3D3D3D3D3D3D3D05
:102408003D3D3D3D3D3D3D3D3D3D3D3D3D3D3D3DF4
:102418003D3D3D3D3D3D3D3D3D3D3D3D3D3D3D3DE4
:102428003D3D3D3D3D3D3D3D3D3D3D000D0A3D2091
:102438002020202020202020202020202028432960
:1024480020434F50595249474854203230313120A7
:1024580053544D6963726F656C656374726F6E690E
:1024680063732020202020202020202020202020CE
:102478002020203D000D0A3D202020202020202063
:102488002020202020202020202020202020202044
:102498002020202020202020202020202020202034
:1024A8002020202020202020202020202020202024
:1024B8002020202020202020202020203D000D0A40
:1024C8003D202053544D33324634787820496E2DC0
:1024D8004170706C69636174696F6E2050726F67C8
:1024E80072616D6D696E67204170706C69636174AB
:1024F800696F6E20202856657273696F6E20312EC1
:10250800302E3029203D000D0A3D2020202020209B
:1025180020202020202020202020202020202020B3
:102528002020202020202020202020202042792028
:102538004D4344204170706C69636174696F6E200B
:102548005465616D202020202020202020203D007F
:102558000D0A0D0A000D0A3D3D3D3D3D3D3D3D3D09
:102568003D3D3D3D3D3D3D3D3D204D61696E204D2C
:10257800656E75203D3D3D3D3D3D3D3D3D3D3D3D0F
:102588003D3D3D3D3D3D3D3D3D3D3D3D3D3D3D3D73
:102598000D0A0A002020446F776E6C6F6164204931
:1025A8006D61676520546F207468652053544D33FE
:1025B800324634787820496E7465726E616C2046B4
:1025C8006C617368202D2D2D2D2D2D2D20310D0A98
:1025D8000A00202055706C6F616420496D61676541
:1025E8002046726F6D207468652053544D3332460F
:1025F80034787820496E7465726E616C20466C611F
:102608007368202D2D2D2D2D2D2D20320D0A0A0019
:1026180020204578656375746520546865204E658B
:10262800772050726F6772616D202D2D2D2D2D2D05
:102638002D2D2D2D2D2D2D2D2D2D2D2D2D2D2D2DC2
:102648002D2D2D2D2D2D2D2D20330D0A0A00202066
:1026580044697361626C6520746865207772697477
:10266800652070726F74656374696F6E202D2D2DEF
:102678002D2D2D2D2D2D2D2D2D2D2D2D2D2D2D2D82
:102688002D2D2D2D2D2D20340D0A0A003D3D3D3DCB
:102698003D3D3D3D3D3D3D3D3D3D3D3D3D3D3D3D62
:1026A8003D3D3D3D3D3D3D3D3D3D3D3D3D3D3D3D52
:1026B8003D3D3D3D3D3D3D3D3D3D3D3D3D3D3D3D42
:1026C8003D3D3D3D3D3D0D0A0A0057726974652048
:1026D80050726F74656374696F6E206469736162A8
:1026E8006C65642E2E2E0D0A004572726F723A20A8
:1026F800466C61736820777269746520756E7072B4
:102708006F74656374696F6E206661696C65642EA9
:102718002E2E0D0A00496E76616C6964204E756D27
:102728006265722021203D3D3E20546865206E750B
:102738006D6265722073686F756C642062652065D0
:10274800697468657220312C2032206F7220330D35
:1027580000496E76616C6964204E756D6265722001
:1027680021203D3D3E20546865206E756D6265727E
:102778002073686F756C642062652065697468658C
:102788007220312C20322C2033206F7220340D001F
:1027980000000000010203040102030406070809FF
:1027A8004300000008000020F8B500BFF8BC08BCD2
:1027B8009E467047F8B500BFF8BC08BC9E467047F7
:0827C800F120000801020008E5
:0427D000DD0100081F
:1027D400007A030A0000000000000000F402002058
:1027E4005C030020C403002000000000000000007F
:1027F40000000000000000000000000000000000D5
:10280400000000000000000000000000A8270008ED
:1028140000000000000000000000000000000000B4
:1028240000000000000000000000000000000000A4
:102834000000000000000000000000000000000094
:102844000000000000000000000000000000000084
:102854000000000000000000000000000000000074
:102864000000000000000000000000000000000064
:102874000000000000000000000000000000000054
:1028840001000000000000000E33CDAB34126DE6F1
:10289400ECDE05000B00000000000000000000005A
:1028A4000000000000000000000000000000000024
:1028B4000000000000000000000000000000000014
:1028C4000000000000000000000000000000000004
:1028D40000000000000000000000000000000000F4
:040000050800018866
:00000001FF
